{
  "_format": "hh-sol-artifact-1",
  "contractName": "Hero",
  "sourceName": "contracts/Hero.sol",
  "abi": [
    {
      "inputs": [
        {
          "internalType": "enum Hero.Class",
          "name": "class",
          "type": "uint8"
        }
      ],
      "name": "createHero",
      "outputs": [],
      "stateMutability": "payable",
      "type": "function"
    },
    {
      "inputs": [],
      "name": "generateRandom",
      "outputs": [
        {
          "internalType": "uint256",
          "name": "",
          "type": "uint256"
        }
      ],
      "stateMutability": "view",
      "type": "function"
    },
    {
      "inputs": [
        {
          "internalType": "uint256",
          "name": "hero",
          "type": "uint256"
        }
      ],
      "name": "getDexterity",
      "outputs": [
        {
          "internalType": "uint32",
          "name": "",
          "type": "uint32"
        }
      ],
      "stateMutability": "pure",
      "type": "function"
    },
    {
      "inputs": [
        {
          "internalType": "uint256",
          "name": "hero",
          "type": "uint256"
        }
      ],
      "name": "getHealth",
      "outputs": [
        {
          "internalType": "uint32",
          "name": "",
          "type": "uint32"
        }
      ],
      "stateMutability": "pure",
      "type": "function"
    },
    {
      "inputs": [],
      "name": "getHeroes",
      "outputs": [
        {
          "internalType": "uint256[]",
          "name": "",
          "type": "uint256[]"
        }
      ],
      "stateMutability": "view",
      "type": "function"
    },
    {
      "inputs": [
        {
          "internalType": "uint256",
          "name": "hero",
          "type": "uint256"
        }
      ],
      "name": "getIntellect",
      "outputs": [
        {
          "internalType": "uint32",
          "name": "",
          "type": "uint32"
        }
      ],
      "stateMutability": "pure",
      "type": "function"
    },
    {
      "inputs": [
        {
          "internalType": "uint256",
          "name": "hero",
          "type": "uint256"
        }
      ],
      "name": "getMagic",
      "outputs": [
        {
          "internalType": "uint32",
          "name": "",
          "type": "uint32"
        }
      ],
      "stateMutability": "pure",
      "type": "function"
    },
    {
      "inputs": [
        {
          "internalType": "uint256",
          "name": "hero",
          "type": "uint256"
        }
      ],
      "name": "getStrength",
      "outputs": [
        {
          "internalType": "uint32",
          "name": "",
          "type": "uint32"
        }
      ],
      "stateMutability": "pure",
      "type": "function"
    }
  ],
  "bytecode": "0x608060405234801561001057600080fd5b50610a5e806100206000396000f3fe60806040526004361061007b5760003560e01c80635e7e236d1161004e5780635e7e236d146101625780639a8d28821461017e578063e15f2255146101a9578063e53fbda6146101e65761007b565b806302e4af01146100805780633acfcaa7146100ab5780633fc70f2c146100e85780635bc0a62314610125575b600080fd5b34801561008c57600080fd5b50610095610223565b6040516100a291906105dd565b60405180910390f35b3480156100b757600080fd5b506100d260048036038101906100cd9190610629565b610256565b6040516100df9190610675565b60405180910390f35b3480156100f457600080fd5b5061010f600480360381019061010a9190610629565b610267565b60405161011c9190610675565b60405180910390f35b34801561013157600080fd5b5061014c60048036038101906101479190610629565b610278565b6040516101599190610675565b60405180910390f35b61017c600480360381019061017791906106b5565b610289565b005b34801561018a57600080fd5b5061019361050e565b6040516101a091906107a0565b60405180910390f35b3480156101b557600080fd5b506101d060048036038101906101cb9190610629565b6105a2565b6040516101dd9190610675565b60405180910390f35b3480156101f257600080fd5b5061020d60048036038101906102089190610629565b6105b3565b60405161021a9190610675565b60405180910390f35b600044426040516020016102389291906107e3565b6040516020818303038152906040528051906020012060001c905090565b6000601f601183901c169050919050565b6000601f600783901c169050919050565b6000601f601683901c169050919050565b66b1a2bc2ec500003410156102d3576040517f08c379a00000000000000000000000000000000000000000000000000000000081526004016102ca9061086c565b60405180910390fd5b6000600567ffffffffffffffff8111156102f0576102ef61088c565b5b60405190808252806020026020018201604052801561031e5781602001602082028036833780820191505090505b509050600281600081518110610337576103366108bb565b5b602002602001018181525050600781600181518110610359576103586108bb565b5b602002602001018181525050600c8160028151811061037b5761037a6108bb565b5b60200260200101818152505060118160038151811061039d5761039c6108bb565b5b6020026020010181815250506016816004815181106103bf576103be6108bb565b5b60200260200101818152505060006005905060008360028111156103e6576103e56108ea565b5b90505b6000826103f4610223565b6103fe9190610948565b90506000600184600d61041191906109a8565b610419610223565b6104239190610948565b61042d91906109a8565b9050848281518110610442576104416108bb565b5b602002602001015181901b83179250838061045c906109fe565b945050848481518110610472576104716108bb565b5b602002602001015185838151811061048d5761048c6108bb565b5b6020026020010181815250505050600082116103e9576000803373ffffffffffffffffffffffffffffffffffffffff1673ffffffffffffffffffffffffffffffffffffffff16815260200190815260200160002081908060018154018082558091505060019003906000526020600020016000909190919091505550505050565b60606000803373ffffffffffffffffffffffffffffffffffffffff1673ffffffffffffffffffffffffffffffffffffffff16815260200190815260200160002080548060200260200160405190810160405280929190818152602001828054801561059857602002820191906000526020600020905b815481526020019060010190808311610584575b5050505050905090565b6000601f600c83901c169050919050565b6000601f600283901c169050919050565b6000819050919050565b6105d7816105c4565b82525050565b60006020820190506105f260008301846105ce565b92915050565b600080fd5b610606816105c4565b811461061157600080fd5b50565b600081359050610623816105fd565b92915050565b60006020828403121561063f5761063e6105f8565b5b600061064d84828501610614565b91505092915050565b600063ffffffff82169050919050565b61066f81610656565b82525050565b600060208201905061068a6000830184610666565b92915050565b6003811061069d57600080fd5b50565b6000813590506106af81610690565b92915050565b6000602082840312156106cb576106ca6105f8565b5b60006106d9848285016106a0565b91505092915050565b600081519050919050565b600082825260208201905092915050565b6000819050602082019050919050565b610717816105c4565b82525050565b6000610729838361070e565b60208301905092915050565b6000602082019050919050565b600061074d826106e2565b61075781856106ed565b9350610762836106fe565b8060005b8381101561079357815161077a888261071d565b975061078583610735565b925050600181019050610766565b5085935050505092915050565b600060208201905081810360008301526107ba8184610742565b905092915050565b6000819050919050565b6107dd6107d8826105c4565b6107c2565b82525050565b60006107ef82856107cc565b6020820191506107ff82846107cc565b6020820191508190509392505050565b600082825260208201905092915050565b7f506c656173652073656e64206d6f7265206d6f6e657900000000000000000000600082015250565b600061085660168361080f565b915061086182610820565b602082019050919050565b6000602082019050818103600083015261088581610849565b9050919050565b7f4e487b7100000000000000000000000000000000000000000000000000000000600052604160045260246000fd5b7f4e487b7100000000000000000000000000000000000000000000000000000000600052603260045260246000fd5b7f4e487b7100000000000000000000000000000000000000000000000000000000600052602160045260246000fd5b7f4e487b7100000000000000000000000000000000000000000000000000000000600052601260045260246000fd5b6000610953826105c4565b915061095e836105c4565b92508261096e5761096d610919565b5b828206905092915050565b7f4e487b7100000000000000000000000000000000000000000000000000000000600052601160045260246000fd5b60006109b3826105c4565b91506109be836105c4565b9250827fffffffffffffffffffffffffffffffffffffffffffffffffffffffffffffffff038211156109f3576109f2610979565b5b828201905092915050565b6000610a09826105c4565b91506000821415610a1d57610a1c610979565b5b60018203905091905056fea26469706673582212203f063626c11a8035ff99835c798317f5f4a5be4fb776698c21a226e9f5ee1ba964736f6c634300080c0033",
  "linkReferences": {},
  "deployedLinkReferences": {}
}