{
  "_format": "hh-sol-artifact-1",
  "contractName": "B",
  "sourceName": "contracts/DelegateA.sol",
  "abi": [
    {
      "inputs": [
        {
          "internalType": "address",
          "name": "_A",
          "type": "address"
        }
      ],
      "stateMutability": "nonpayable",
      "type": "constructor"
    },
    {
      "inputs": [],
      "name": "getB",
      "outputs": [
        {
          "internalType": "uint256",
          "name": "",
          "type": "uint256"
        }
      ],
      "stateMutability": "view",
      "type": "function"
    },
    {
      "inputs": [
        {
          "internalType": "uint256",
          "name": "_a",
          "type": "uint256"
        }
      ],
      "name": "setB",
      "outputs": [],
      "stateMutability": "nonpayable",
      "type": "function"
    }
  ],
  "bytecode": "0x608060405234801561001057600080fd5b5060405161049f38038061049f833981810160405281019061003291906100db565b806000806101000a81548173ffffffffffffffffffffffffffffffffffffffff021916908373ffffffffffffffffffffffffffffffffffffffff16021790555050610108565b600080fd5b600073ffffffffffffffffffffffffffffffffffffffff82169050919050565b60006100a88261007d565b9050919050565b6100b88161009d565b81146100c357600080fd5b50565b6000815190506100d5816100af565b92915050565b6000602082840312156100f1576100f0610078565b5b60006100ff848285016100c6565b91505092915050565b610388806101176000396000f3fe608060405234801561001057600080fd5b50600436106100365760003560e01c806309cdcf9b1461003b578063a1c5191514610057575b600080fd5b610055600480360381019061005091906101e5565b610075565b005b61005f6101a0565b60405161006c9190610221565b60405180910390f35b8060018190555060008054906101000a900473ffffffffffffffffffffffffffffffffffffffff1673ffffffffffffffffffffffffffffffffffffffff166001826100c0919061026b565b6040516024016100d09190610221565b6040516020818303038152906040527fee919d50000000000000000000000000000000000000000000000000000000007bffffffffffffffffffffffffffffffffffffffffffffffffffffffff19166020820180517bffffffffffffffffffffffffffffffffffffffffffffffffffffffff838183161783525050505060405161015a919061033b565b600060405180830381855af49150503d8060008114610195576040519150601f19603f3d011682016040523d82523d6000602084013e61019a565b606091505b50505050565b6000600154905090565b600080fd5b6000819050919050565b6101c2816101af565b81146101cd57600080fd5b50565b6000813590506101df816101b9565b92915050565b6000602082840312156101fb576101fa6101aa565b5b6000610209848285016101d0565b91505092915050565b61021b816101af565b82525050565b60006020820190506102366000830184610212565b92915050565b7f4e487b7100000000000000000000000000000000000000000000000000000000600052601160045260246000fd5b6000610276826101af565b9150610281836101af565b9250827fffffffffffffffffffffffffffffffffffffffffffffffffffffffffffffffff038211156102b6576102b561023c565b5b828201905092915050565b600081519050919050565b600081905092915050565b60005b838110156102f55780820151818401526020810190506102da565b83811115610304576000848401525b50505050565b6000610315826102c1565b61031f81856102cc565b935061032f8185602086016102d7565b80840191505092915050565b6000610347828461030a565b91508190509291505056fea2646970667358221220d9e2f7de9dd5f454775b76d761095f8bba838b823349cbf694b040c489f0001964736f6c634300080c0033",
  "linkReferences": {},
  "deployedLinkReferences": {}
}