{
  "_format": "hh-sol-artifact-1",
  "contractName": "Counter",
  "sourceName": "contracts/Counter.sol",
  "abi": [
    {
      "anonymous": false,
      "inputs": [
        {
          "indexed": false,
          "internalType": "uint256",
          "name": "counter",
          "type": "uint256"
        }
      ],
      "name": "CounterInc",
      "type": "event"
    },
    {
      "inputs": [],
      "name": "count",
      "outputs": [],
      "stateMutability": "nonpayable",
      "type": "function"
    },
    {
      "inputs": [],
      "name": "getCounter",
      "outputs": [
        {
          "internalType": "uint32",
          "name": "",
          "type": "uint32"
        }
      ],
      "stateMutability": "view",
      "type": "function"
    }
  ],
  "bytecode": "0x608060405234801561001057600080fd5b50610423806100206000396000f3fe608060405234801561001057600080fd5b50600436106100365760003560e01c806306661abd1461003b5780638ada066e14610045575b600080fd5b610043610063565b005b61004d610141565b60405161005a919061023e565b60405180910390f35b60008081819054906101000a900463ffffffff168092919061008490610288565b91906101000a81548163ffffffff021916908363ffffffff160217905550506100f86040518060400160405280600e81526020017f436f756e746572206973206e6f7700000000000000000000000000000000000081525060008054906101000a900463ffffffff1663ffffffff1661015a565b7feec7b728df2430a6685bba924a4a787b147d45a2b38034570f9fe9613a91ea4460008054906101000a900463ffffffff1660405161013791906102fa565b60405180910390a1565b60008060009054906101000a900463ffffffff16905090565b6101f282826040516024016101709291906103bd565b6040516020818303038152906040527f9710a9d0000000000000000000000000000000000000000000000000000000007bffffffffffffffffffffffffffffffffffffffffffffffffffffffff19166020820180517bffffffffffffffffffffffffffffffffffffffffffffffffffffffff83818316178352505050506101f6565b5050565b60008151905060006a636f6e736f6c652e6c6f679050602083016000808483855afa5050505050565b600063ffffffff82169050919050565b6102388161021f565b82525050565b6000602082019050610253600083018461022f565b92915050565b7f4e487b7100000000000000000000000000000000000000000000000000000000600052601160045260246000fd5b60006102938261021f565b915063ffffffff8214156102aa576102a9610259565b5b600182019050919050565b6000819050919050565b6000819050919050565b60006102e46102df6102da8461021f565b6102bf565b6102b5565b9050919050565b6102f4816102c9565b82525050565b600060208201905061030f60008301846102eb565b92915050565b600081519050919050565b600082825260208201905092915050565b60005b8381101561034f578082015181840152602081019050610334565b8381111561035e576000848401525b50505050565b6000601f19601f8301169050919050565b600061038082610315565b61038a8185610320565b935061039a818560208601610331565b6103a381610364565b840191505092915050565b6103b7816102b5565b82525050565b600060408201905081810360008301526103d78185610375565b90506103e660208301846103ae565b939250505056fea264697066735822122047b8ac09f43c53dca28db14c45638565b363ee164e1ca479665ad57b33ed48b364736f6c634300080c0033",
  "linkReferences": {},
  "deployedLinkReferences": {}
}